:020000040800F2
:10000000480A0020F55B0008450200084702000886
:100010004B0200084F0200085302000800000000D5
:10002000000000000000000000000000570200086F
:1000300059020008000000005B0200085D02000891
:100040000F5C00080F5C00080F5C00080F5C0008E4
:100050000F5C00080F5C00080F5C00080F5C0008D4
:100060000F5C00080F5C00080F5C00080F5C0008C4
:100070000F5C00080F5C00080F5C00080F5C0008B4
:100080000F5C00080F5C00080F5C00080F5C0008A4
:100090000F5C00080F5C00080F5C0008D517000813
:1000A0000F5C00080F5C00080F5C00080F5C000884
:1000B000BD5400080F5C00080F5C00080F5C0008CE
:1000C0000F5C00080F5C00080F5C00080F5C000864
:1000D0000F5C0008695B00080F5C0008F508000869
:1000E0000F5C00080F5C00080F5C000800F002F8CD
:1000F00000F06DF80AA090E8000C82448344AAF155
:100100000107DA4501D100F062F8AFF2090EBAE852
:100110000F0013F0010F18BFFB1A43F0010318473B
:10012000DCBC0000FCBC00000A444FF0000C10F8DE
:10013000013B13F0070408BF10F8014B1D1108BF65
:1001400010F8015B641E05D010F8016B641E01F805
:10015000016BF9D113F0080F1EBF10F8014BAD1C55
:100160000C1B09D16D1E58BF01F801CBFAD505E073
:1001700014F8016B01F8016B6D1EF9D59142D6D3CD
:10018000704700000023002400250026103A28BFF5
:1001900078C1FBD8520728BF30C148BF0B607047F9
:1001A00066290AF07A82642907F02A83782907F001
:1001B0006383002070471FB507F09CFF04000020F8
:1001C000002109F0C7F8E0601FBD10B510BD08F0B0
:1001D000D9F81146FFF7EFFF00F008F808F0F7F83C
:1001E00003B4FFF7F2FF03BC05F064FC00F028F94C
:1001F00000F058F905F0B6FB4FF4E13005F068FC6B
:100200004FF4165000F082F9642005F0E8FB05F089
:1002100013FC01F047FA01F08FFA01F003F900F046
:10022000F2FC01F082FC03F075FF04F08DFF0A215F
:1002300041F61F4001F086FB4FF47A7005F0CFFBCA
:1002400000BFFEE7704700BFFEE700BFFEE700BF4C
:10025000FEE700BFFEE77047704770477047000039
:100260000CB50020019000906C48006840F480308C
:100270006A49086000BF6948006800F400300090D7
:100280000198401C0190009818B90198B0F5A06F32
:10029000F1D16248006800F4003010B101200090F4
:1002A00001E0002000900098012843D15C480068DC
:1002B00040F010005A4908600846006820F003002A
:1002C00008600846006840F0020008605348406833
:1002D000524948600846406848600846406840F413
:1002E000806048600846406820F47C1048600846FA
:1002F000406840F4E81048600846006840F08070AC
:10030000086000BF4548006800F000700028F9D080
:100310004248406820F00300404948600846406871
:1003200040F00200486000BF3C48406800F00C000C
:100330000828F9D10CBD10B5FFF792FF10BD10B51C
:100340003648006840F001003449086008464068BB
:10035000344908403149486008460068324908403D
:100360002E4908600846006820F48020086008468E
:10037000406820F4FE0048604FF41F008860FFF7DB
:10038000DAFF4FF000602949086010BD10B5002168
:1003900000200022214B5B6803F00C0121B10429ED
:1003A00006D0082928D107E0214B224C236027E002
:1003B0001F4B204C236023E0184B5B6803F4701044
:1003C000164B5B6803F48032022303EB904022B9A2
:1003D000194B4343174C23600DE0104B5B6803F44B
:1003E000003323B1144B4343124C236003E0104B02
:1003F0004343104C236003E00D4B0E4C236000BFC1
:1004000000BF064B5B68C3F303130C4CE15C094B64
:100410001B68CB40074C236010BD00000010024059
:10042000002002400000FFF8FFFFF6FE08ED00E0AC
:1004300000127A004800002000093D004C00002016
:1004400008B50121042005F07FFF4FF48070ADF85E
:10045000000010208DF8030003208DF8020069468B
:100460000C4805F0B5FC08BD18B900210A4A116016
:100470000FE00A490968491C084A1160814208D105
:1004800005490968C943064AC2F8A0110021034A78
:100490001160704700080140A00121425C0000206B
:1004A0000000214208B50121102005F04DFF202059
:1004B000ADF8000048208DF803006946114805F0AA
:1004C00087FC08BD10B5044614B101200E49087020
:1004D0000D48007860B120210A4805F00CFD38B9BC
:1004E0000A2005F07CFA002007490870012010BDA1
:1004F0002021044805F0FFFC012801D102490870C1
:100500000020F4E7001001406000002010B586B024
:1005100004460121082005F017FF0121880405F099
:1005200020FF4FF48060ADF8140003208DF8160012
:1005300018208DF8170005A9F94805F049FC4FF47B
:100540000060ADF8140004208DF8170005A9F448E8
:1005500005F03EFC01940020ADF80800ADF80A005B
:10056000ADF80C00ADF810000C20ADF80E0001A99C
:10057000EC4805F090FF012240F22551E94806F0D1
:1005800022F80121E74806F012F806B010BD2DE967
:10059000F04F87B005460E4691460124E2A007F0D1
:1005A000FBF8002028603060C9F8000036E0052C18
:1005B00022D12146641CDF4A515CA1F1300009F0D0
:1005C00082F90022DC4BCDE9000109F0E3F907468E
:1005D0000022DA4B08F0C2FFCDE90401286809F0D7
:1005E000B3FCCDE90201DDE9042308F0FBFE8246FD
:1005F00008F0C6FE286011E02146641CCD4A515C1B
:10060000A1F1300009F06CFE0746CD49286809F0D9
:10061000C7FE8046394609F0C3FC2860052CC6DDBC
:1006200036E00A2C22D12146641CC24A515CA1F159
:10063000300009F048F907460022BF4B09F0AAF93B
:1006400082460022BD4B08F089FFCDE902013068E7
:1006500009F07AFCCDE90001DDE9022308F0C2FED1
:10066000CDE9040108F08CFE306011E02146641CE5
:10067000B04A515CA1F1300009F032FE0746B049A2
:10068000306809F08DFE8046394609F089FC3060FB
:100690000A2CC6DD3AE00F2C24D12146641CA54A61
:1006A000515CA1F1300009F00EF982460022A24B04
:1006B00009F070F907460022A04B08F04FFFCDE982
:1006C0000201D9F8000009F03FFCCDE90001DDE9A5
:1006D000022308F087FECDE9040108F051FEC9F8B5
:1006E000000013E02146641C924A515CA1F13000E5
:1006F00009F0F6FD07469249D9F8000009F050FECE
:100700008046394609F04CFCC9F800000F2CC2DDC8
:100710008C48006880F000408A4908608A48006878
:1007200080F00040884908608848006880F00040F8
:1007300086490860D9F8000009F006FC074688469B
:10074000306809F001FC82468B46286809F0FCFB02
:1007500002460B46CDE900ABCDE90278CDE90401B4
:100760007BA007F019F807B0BDE8F08F10B56D4811
:1007700005F08EFFC4B26CA007F00EF87748007841
:1007800080B9412C0ED101207449087000207449B1
:10079000087068480978445471480078401C7049D2
:1007A000087056E06D480078012852D16C480078F6
:1007B0006C49096888424CDA5E48694909784454B2
:1007C00067480078401C664908700846007865490B
:1007D0000968884228D162480078401E5549085C63
:1007E000422821D160480068012804D0022808D09E
:1007F000032812D10BE05D4A5D495E48FFF7C7FE52
:100800000CE0524A50494F48FFF7C1FE06E05A4AF1
:100810005A495B48FFF7BBFE00E000BF00BF002065
:100820004F4908704D4908704D4800784D49096896
:1008300088420ED14A480078401E3E49085C422852
:1008400007D050A006F0A8FF002045490870434992
:10085000087040F22551334805F091FF10BD10B5E6
:10086000304805F015FFC4B24BA006F095FFA4F187
:10087000310007283BD2DFE800F0040C141A2128CD
:1008800031006FF01D0047490860002046490860AC
:100890002EE00020434908606FF0270042490860BD
:1008A00026E000203F4908603F49086020E0002022
:1008B0003C49086028203C49086019E01E2039495D
:1008C000086000203849086012E036480068401D82
:1008D0003449086000203449086009E03148006864
:1008E000401F3049086000202F49086000E000BF29
:1008F00000BF10BD10B540F225510A4805F048FF71
:1009000060B1084805F0C4FEC4B2632C4ED0732C0D
:1009100054D0782C56D07A2C58D14BE061E00000AE
:10092000000C014000480040696E207069640D0AA7
:1009300000000000700100200000F03F0000244093
:1009400000002041CC000020D0000020D400002076
:1009500025662C25662C2566000000006500002019
:10096000660000206C00002068000020C800002005
:10097000C4000020C0000020E0000020DC000020B7
:10098000D8000020504C4541534520534554204148
:100990004741494E00000000696E206361720D0AF4
:1009A000000000000400002008000020002024496E
:1009B00008600CE001202249086008E0022020497C
:1009C000086004E003201E49086000E000BF00BF8B
:1009D0001B48006810B9FFF742FF01E0FFF7C6FEB1
:1009E00000BF10BD10B504462146164805F04CFE68
:1009F00000BF4021134805F0B5FE0128F9D110BD14
:100A000070B504460D46002605E014F8010BFFF70B
:100A1000E9FF701C86B2AE42F7DB70BD70B50446CC
:100A2000204607F01DF886B2002505E014F8010BFA
:100A3000FFF7D8FF681C85B2B542F7DB70BD000038
:100A4000680000200048004010B54FF48061F9486C
:100A500005F06BFA4FF40041F74805F066FA4FF4E1
:100A60000041F54805F063FA4FF48061F14805F064
:100A70005EFA10BD10B54FF48061EE4805F055FAEE
:100A80004FF40041EC4805F052FA4FF40041EA48B7
:100A900005F04BFA10BD10B54FF48061E54805F044
:100AA00044FA4FF48061E34805F041FA10BD2DE9A6
:100AB000F04105462C464FF48061DE4805F037FAD8
:100AC00000261CE0274607F08007802F04D139025A
:100AD000D94805F02AFA04E04FF40041D64805F061
:100AE00026FA6006040E4FF48061D24805F01DFA24
:100AF0004FF48061CF4805F01AFA701CC6B2082E78
:100B0000E0DBBDE8F08110B50446FFF79DFF7820DB
:100B1000FFF7CDFFFFF7BFFF0020FFF7C8FFFFF78C
:100B2000BAFF2046FFF7C3FFFFF7B5FFFFF7A2FFAD
:100B300010BD10B50446FFF787FF7820FFF7B7FF19
:100B4000FFF7A9FF4020FFF7B2FFFFF7A4FF204601
:100B5000FFF7ADFFFFF79FFFFFF78CFF10BD70B5EC
:100B600004460D461DB1E0B2FFF7E3FF02E0E0B23C
:100B7000FFF7C9FF70BD06E041F6650100E0491EC0
:100B80000029FCD1401E0028F6D17047014605E03F
:100B9000002001E0421CD0B27B28FBDB0A1EA1F141
:100BA0000101F5D1704770B504460D4605F1B0005E
:100BB0000021FFF7D4FF102141EA14100021FFF7B4
:100BC000CEFF04F00F000021FFF7C9FF70BD10B584
:100BD00000218D20FFF7C3FF00211420FFF7BFFF86
:100BE0000021AF20FFF7BBFF10BD10B500218D2005
:100BF000FFF7B5FF00211020FFF7B1FF0021AE2065
:100C0000FFF7ADFF10BD70B5002418E004F1B0008F
:100C10000021FFF7A4FF00210846FFF7A0FF0021F5
:100C20001020FFF79CFF002505E001210020FFF7C1
:100C300096FF681CC5B2802DF7DB601CC4B2082C7F
:100C4000E4DB70BD70B5002418E004F1B0000021B1
:100C5000FFF785FF00210846FFF781FF00211020E4
:100C6000FFF77DFF002505E001210846FFF777FF2C
:100C7000681CC5B2802DF7DB601CC4B2082CE4DB15
:100C800070BD2DE9F04707460E469046994600256F
:100C90000024A8F12000C5B27F2F02DD0027B01C80
:100CA000C6B2B9F1100F24D131463846FFF77BFFA9
:100CB000002408E004EB0511604A505C0121FFF7B5
:100CC0004EFF601CC4B2082CF4DB701CC1B2384665
:100CD000FFF769FF002409E004EB05110831574ACA
:100CE000505C0121FFF73BFF601CC4B2082CF3DB12
:100CF00012E031463846FFF756FF00240AE005EBC4
:100D000045014F4A02EB4101085D0121FFF727FF32
:100D1000601CC4B2062CF2DBBDE8F08710B50246B9
:100D2000012000E050430B1EA1F10104E1B2F9D112
:100D300010BD2DE9FF5F074691461E460E9D4FF000
:100D4000000A002435E0301B401EC1B20A20FFF724
:100D5000E5FFB9FBF0F00A21B0FBF1F201FB12084C
:100D6000BAF1000F14D1701EA04211DDB8F1000FCE
:100D70000CD1AB4605EBDB71491001FB0471C8B225
:100D80002B4620220199FFF77CFF10E04FF0010A6B
:100D9000AB4605EBDB71491001FB0471C8B208F1E9
:100DA0003001CAB22B460199FFF76BFF00BF601CF0
:100DB000C4B2B442C7DBBDE8FF9F2DE9F041054650
:100DC0000E4614461F460EE022783B463146284622
:100DD000FFF757FF05F10800C5B2782D02DD0025A9
:100DE000B01CC6B2641C20780028EDD1BDE8F081AB
:100DF0002DE9FF5F86B014461D464FF0010A002022
:100E00000390049005904FF00109002600BF83462F
:100E1000002213462046294608F080FD12D285F0B4
:100E20000040CDE900402046019908F0EFFC06465D
:100E30000DE0000000100140000C0140B6A90008C0
:100E40008EA700082046294608F0E0FC06463046FA
:100E500008F039FD22462B46CDE9000108F098FE46
:100E6000074688460022FE4B3846414608F092FD70
:100E7000CDE9000108F0FAFC834607E009EB8900A0
:100E80004FEA40090AF1010000F0FF0A0A2096FB30
:100E9000F0F090FBF9F00028F0D142F2107096FBD0
:100EA000F0F00A2190FBF1F201FB1200C0B28DF8C4
:100EB0000C004FF47A7096FBF0F090FBF1F201FB1E
:100EC0001200C0B28DF80D00642096FBF0F090FB8C
:100ED000F1F201FB1200C0B28DF80E000A2096FB61
:100EE000F0F090FBF1F201FB1200C0B28DF80F00A0
:100EF0000A2096FBF0F100FB1160C0B28DF81000E3
:100F00002E208DF811004FF47A70BBFBF0F00A210F
:100F1000B0FBF1F201FB12008DF812006420BBFB64
:100F2000F0F0B0FBF1F201FB12008DF813000A2083
:100F3000BBFBF0F0B0FBF1F201FB12008DF81400E6
:100F40000A20BBFBF0F100FB11B08DF81500002169
:100F50001498801D03AA1154894608E003A810F8CC
:100F60000900303003A901F8090009F10109B9F1BC
:100F70000A0FF3DB002213462046294608F0CEFC78
:100F800008D20AF1010000F0FF0A2D20CAF1050184
:100F900003AA50542E208DF8110000211498801DB2
:100FA00003AA1154CAF1050003A942180C23DDE974
:100FB0000610FFF702FF0AB0BDE8F09F2DE9F04FE1
:100FC00089B08246894617469846DDF84CB0012024
:100FD000079000200490059006900124002500BF92
:100FE00000264FEAC9604FEA10693846414608F0CA
:100FF0000DFC0546284608F07DFC3A464346CDE9FF
:10100000000108F0C5FDCDE902010022944BDDE9A5
:10101000020108F0BFFCCDE9000108F027FC0646FC
:1010200006E004EB840044000798401CC0B207901F
:101030000A20B5FBF0F0B0FBF4F00028F1D142F249
:101040001070B5FBF0F00A21B0FBF1F201FB1200C9
:101050008DF810004FF47A70B5FBF0F0B0FBF1F2B0
:1010600001FB12008DF811006420B5FBF0F0B0FB1D
:10107000F1F201FB12008DF812000A20B5FBF0F02E
:10108000B0FBF1F201FB12008DF813002E208DF859
:1010900015004FF47A70B6FBF0F0B0FBF1F201FBF3
:1010A00012008DF816006420B6FBF0F0B0FBF1F2F0
:1010B00001FB12008DF817000A20B6FBF0F0B0FB20
:1010C000F1F201FB12008DF818000A20B6FBF0F1D6
:1010D00000FB11608DF8190000210BF1060004AA35
:1010E0001154002405E004A8005D303004A908551F
:1010F000641C0A2CF7DB2E208DF8150000210BF163
:10110000060004AA11541298C0F1050004A942185F
:101110000C2351464846FFF750FE09B0BDE8F08F5A
:101120002DE9F04105460F46164600BF05EB450187
:101130004906080E3946FFF736FD00240BE006F19C
:10114000100101EB4101474A02EB4101085D012119
:10115000FFF705FD641C062CF1DBBDE8F0812DE9ED
:10116000F04105460F46164600BF05EB450149060E
:10117000080E3946FFF717FD002409E006EB46018B
:10118000384A02EB4101085D0121FFF7E8FC641CCD
:10119000062CF3DBBDE8F0812DE9F04705468946D2
:1011A00016463446002C22DA6442642094FBF0F1A7
:1011B00000FB11400A2190FBF1F0C7B20A2094FB1A
:1011C000F0F100FB114000F0FF080D2249462846CF
:1011D000FFF7C5FF691CC8B23A464946FFF7A0FFB2
:1011E000A91CC8B242464946FFF79AFF20E0642096
:1011F00094FBF0F100FB11400A2190FBF1F0C7B223
:101200000A2094FBF0F100FB114000F0FF080B22D4
:1012100049462846FFF7A3FF691CC8B23A4649462B
:10122000FFF77EFFA91CC8B242464946FFF778FF88
:10123000BDE8F0872DE9F04705468A461646344654
:10124000002C32DA64420D2251462846FFF787FF10
:101250000A2094FBF0F100FB1140C7B20A2003E022
:101260000088C3408EA7000894FBF0F00A2190FB91
:10127000F1F201FB120000F0FF08642094FBF0F093
:1012800000F0FF09E91CC8B23A465146FFF748FF93
:10129000A91CC8B242465146FFF742FF691CC8B2BA
:1012A0004A465146FFF73CFF2BE00B2251462846A9
:1012B000FFF755FF0A2094FBF0F100FB1140C7B285
:1012C0000A2094FBF0F00A2190FBF1F201FB1200DE
:1012D00000F0FF08642094FBF0F000F0FF09E91C27
:1012E000C8B23A465146FFF71BFFA91CC8B2424696
:1012F0005146FFF715FF691CC8B24A465146FFF731
:101300000FFFBDE8F0872DE9F05F05468B461646D6
:101310003446002C00DA64424FF47A7094FBF0F00B
:10132000C7B24FF47A7094FBF0F100FB11406421D6
:1013300090FBF1F000F0FF08642094FBF0F100FB5B
:1013400011400A2190FBF1F000F0FF090A2094FB04
:10135000F0F100FB114000F0FF0A3A4659462846DA
:10136000FFF7DEFE691CC8B242465946FFF7D8FEB9
:10137000A91CC8B24A465946FFF7D2FEE91CC8B2BA
:1013800052465946FFF7CCFEBDE8F09F2DE9F05FCD
:1013900005460E46144642F21070B4FBF0F0C7B298
:1013A00042F21070B4FBF0F100FB11404FF47A717F
:1013B000B0FBF1F000F0FF080846B4FBF0F100FBD1
:1013C00011406421B0FBF1F000F0FF096420B4FB90
:1013D000F0F100FB11400A21B0FBF1FA0A20B4FB46
:1013E000F0F100FB114B3A4631462846FFF798FED4
:1013F000691CC8B242463146FFF792FEA91CC8B22A
:101400004A463146FFF78CFEE91CC8B252463146C7
:10141000FFF786FE291DC8B25A463146FFF780FE07
:10142000BDE8F09F08B50121182004F08DFF4FF4AE
:101430008060ADF8000010208DF8030003208DF8C7
:1014400002006946844804F0C3FC4FF40040ADF844
:10145000000010208DF8030003208DF8020069467B
:101460007E4804F0B5FC4FF480617B4804F05DFDDC
:101470004FF40041794804F058FD4FF4487004F0EF
:10148000AEFA0021AE20FFF76AFB00210846FFF705
:1014900066FB00211020FFF762FB00214020FFF7D0
:1014A0005EFB0021B020FFF75AFB00218120FFF7EF
:1014B00056FB0021FF20FFF752FB0021A120FFF780
:1014C0004EFB0021A620FFF74AFB0021A820FFF7D2
:1014D00046FB00213F20FFF742FB0021C820FFF719
:1014E0003EFB0021D320FFF73AFB00210846FFF71F
:1014F00036FB0021D520FFF732FB00218020FFF7CB
:101500002EFB0021D820FFF72AFB00210520FFF742
:1015100026FB0021D920FFF722FB0021F120FFF755
:101520001EFB0021DA20FFF71AFB00211220FFF733
:1015300016FB0021DB20FFF712FB00213020FFF714
:101540000EFB00218D20FFF70AFB00211420FFF77E
:1015500006FB0021AF20FFF702FB08BD10B50C23EE
:101560003FA200210846FFF728FC0C233EA20121E0
:101570000020FFF722FC0C233DA201215A20FFF797
:101580001CFC0C233BA202213C20FFF716FC0C2381
:1015900039A202210120FFF710FC0C2337A20621FB
:1015A0000020FFF70AFC10BDF8B50021354800689F
:1015B00008F0C2FE16D20C2333A200213020FFF720
:1015C000FCFB3048006880F00044204608F0BCFC7A
:1015D000054603202A460B46382100900020FFF7DD
:1015E00007FC12E00C2329A200213020FFF7E5FBC5
:1015F0002448006808F0A8FC0446032022460B4655
:10160000382100900020FFF7F3FB2148006808F024
:101610009BFC0446022022460B463021009001200C
:10162000FFF7E6FB1B48032102680E20FFF7B4FD1D
:101630001948027806210E20FFF7AEFD1748022157
:1016400002680E20FFF7F6FD15480221026804200B
:10165000FFF7F0FDF8BD000000100140000C014054
:10166000414E474C453A0000424154203A000000A8
:1016700056000000523A20004C3A20004D4F44459D
:10168000203A0000200000202D0000002B00000068
:10169000000000203C000020640000201800002012
:1016A0001400002000B587B00121042004F059FE89
:1016B0000121082004F048FEC020ADF800000420FD
:1016C0008DF803006946594804F082FB04A805F030
:1016D00031FD0020ADF810004FF6FF70ADF814009A
:1016E0000020ADF81600ADF8120004A9504805F02E
:1016F000F5F900231A4603214D4805F0FEFD01A827
:1017000005F02BFD0A20ADF80C0001A9484805F0B2
:1017100078FC0121464806F003F8012211464448AE
:1017200005F053FD0021424805F0C8FF0121404863
:1017300005F030FD07B000BD0EB50121082004F012
:1017400003FE0121084604F0FFFD48208DF80B0040
:101750004FF44070ADF8080003208DF80A0002A98C
:10176000324804F035FB0821012004F047FC092130
:10177000012004F043FC4FF44070009001208DF8EC
:10178000060000208DF804000C208DF80500684646
:1017900005F050F80EBD27490988890008B20021DC
:1017A000244A1180704700B50346032B02D0042B56
:1017B0000CD102E0FFF7EFFF0AE01D492431098850
:1017C00008B200211A4A2432118001E0002000BF33
:1017D00000BF00BD10B54FF4807005F091F80128EE
:1017E0000ED14102114804F086FB28B91148008847
:1017F000401C00B20F4908804FF4807005F091F84A
:101800004FF4007005F07CF801280ED10102074862
:1018100004F071FB28B907480088401E00B2054952
:1018200008804FF4007005F07CF810BD000C0140FA
:1018300000080040700000200146002901DA4842FB
:1018400000E00846704700B503460A46002B08DD55
:101850001846FFF7F1FF344908800020091D088071
:1018600008E00020304908801846FFF7E5FF2E49C0
:10187000091D0880002A09DA1046FFF7DDFF2A4912
:10188000083108800020091D088009E00020264951
:10189000083108801046FFF7CFFF23490C3108803C
:1018A00000BD224800682249884202DA08461F49E2
:1018B00008601E48006841F65831884202DD08463B
:1018C0001A4908601B4800681949884202DA08462C
:1018D000184908601748006841F65831884202DD0F
:1018E00008461449086070472DE9F04105460C464A
:1018F0001149284608F020FD0ED31049284608F06B
:101900001BFE09D3204608F01FFB06464FF033327A
:101910000B4B08F003F804D2002004490860054985
:101920000860BDE8F0810000340400400C00002095
:10193000A8E4FFFF10000020000020C200002042A9
:101940003333264030B589B005460C4601210220CC
:1019500004F007FD0121102004F0F6FC01210846E7
:1019600004F0F2FC4FF47070ADF8200018208DF8F0
:10197000230003208DF8220008A9244804F028FA47
:101980000121234804F0F5FAADF81850ADF81440E1
:101990000020ADF81A00ADF8160005A91D4805F0A5
:1019A0009DF86020ADF804000120ADF8060000208D
:1019B000ADF80A00ADF80C0001A9164805F0CBF807
:1019C00001A9144805F009F901A9124805F052F9D6
:1019D00001A9104805F099F908210E4805F00AFD03
:1019E00008210C4805F00FFD08210A4805F018FDF4
:1019F0000821084805F01DFD0121064805F0CAFC34
:101A00000121044805F0C6FB09B030BD00100140BB
:101A1000000C1A000004004070B505460C4600F0AA
:101A20008EFAD02000F035FB00F0C6FA18B100F0B5
:101A3000A4FA012070BD284600F02BFB00F0BCFA90
:101A4000204600F026FB00F0B7FA18B100F095FA36
:101A50000120EFE700F091FA0020EBE770B50446B3
:101A60000025BC2C01DB012510E0622C01DB0225E6
:101A70000CE02A2C01DB032508E0142C01DB0425F3
:101A800004E00A2C01DB052500E0062529461A2082
:101A9000FFF7C2FF70BD70B50446B4F57A7F01DD73
:101AA0004FF47A74042C00DA04244FF47A7090FB1B
:101AB000F4F0401EC5B229461920FFF7ADFF0546D8
:101AC000264604EBD671C1F34F00FFF7C7FF70BD88
:101AD00070B5044600F033FAD02000F0DAFA00F0D6
:101AE0006BFA204600F0D5FA00F066FA00F027FA0B
:101AF000D12000F0CEFA00F05FFA002000F0F2FAF8
:101B0000054600F03AFA284670BD10B50446E006D6
:101B1000010E1C20FFF780FF10BD10B50446E00643
:101B2000010E1B20FFF778FF10BD10B500F0F3F990
:101B300080216B20FFF770FF642003F050FF00212D
:101B40006B20FFF769FF0320FFF7E7FF0020FFF797
:101B5000DCFFC820FFF79FFF00213820FFF75CFF64
:101B600000216A20FFF758FF00212320FFF754FFD0
:101B700080213720FFF750FF7520FFF7A9FF0446AB
:101B8000682C0BD101216B20FFF746FF00216C2050
:101B9000FFF742FFC820FFF77EFF01E0012010BDE4
:101BA0000020FCE72DE9F04106460F4614461D468D
:101BB00000F0C5F9002141EA4601C8B200F069FA17
:101BC00000F0FAF920B100F0D8F90120BDE8F08169
:101BD000384600F05EFA00F0EFF900F0B0F90121AC
:101BE00001EB4601C8B200F054FA00F0E5F90DE04F
:101BF000012C04D1002000F075FA287003E00120C8
:101C000000F070FA2870601EC4B26D1C002CEFD179
:101C100000F0B3F90020D9E72DE9F84F6B46022216
:101C200041216820FFF7BEFF9DF801009DF80010DC
:101C300040EA01200FFA80FA504607F044FE804641
:101C40000022A84B07F08AFC0646A74AA74B07F0DC
:101C5000C9FB044607F094FB8346A549584608F0A3
:101C60009FFB044608F000FB00B2BDE8F88F2DE9A9
:101C7000FC4104460D4616466B4606224321682069
:101C8000FFF790FF0746BFB99DF801009DF80010CF
:101C900040EA012000B220809DF803009DF8021068
:101CA00040EA012000B228809DF805009DF804104C
:101CB00040EA012000B230803846BDE8FC812DE9C1
:101CC000FC4104460D4616466B4606223B21682021
:101CD000FFF768FF0746BFB99DF801009DF80010A7
:101CE00040EA012000B220809DF803009DF8021018
:101CF00040EA012000B228809DF805009DF80410FC
:101D000040EA012000B230803846BDE8FC812DE970
:101D1000F04105460E461746984600F010F900219E
:101D200041EA4501C8B200F0B4F900F045F920B12C
:101D300000F023F90120BDE8F081304600F0A9F958
:101D400000F03AF900240CE018F8040000F0A1F9C2
:101D500000F032F918B100F010F90120EBE7601C37
:101D6000C4B2BC42F0DB00F008F90020E3E770B534
:101D70004420FFF7ADFE06464320FFF7A9FE06EB21
:101D80000025284608F0ACFA04464FF08E41204664
:101D900008F0D2FB05D24FF08F41204608F008FC36
:101DA0000446204670BD70B54820FFF791FE0646F8
:101DB0004720FFF78DFE06EB0025284608F090FA35
:101DC00004464FF08E41204608F0B6FB05D24FF096
:101DD0008F41204608F0ECFB0446204670BD70B5EC
:101DE0003E20FFF775FE06463D20FFF771FE06EB2D
:101DF0000025284608F074FA04464FF08E4120462C
:101E000008F09AFB05D24FF08F41204608F0D0FB36
:101E10000446204670BD70B54020FFF759FE0646C7
:101E20003F20FFF755FE06EB0025284608F058FA3C
:101E300004464FF08E41204608F07EFB05D24FF05D
:101E40008F41204608F0B4FB0446204670BD2DE9C2
:101E5000F04F87B0FFF78BFF0390FFF7A4FF0290CE
:101E6000FFF7BDFF0590FFF7D6FF0490049808F038
:101E70006BF8CDE90001059808F066F88046DDE9C9
:101E8000002307F081F9064600221A4B07F082FD75
:101E90000446194A194B07F061FB824607F070FAB5
:101EA00017490860039808F04FF806464FF066326D
:101EB000144B07F053FB044607F062FA03900298B4
:101EC00008F0D2F900B210490880039808F0CCF964
:101ED00004B221460A48006803F044FC07B0BDE89C
:101EE000F08F000000407540A4703D0AD743424087
:101EF0000000C84200806640F1D4C853FB2109406D
:101F000074000020666630403A00002010B50220C0
:101F100003F041FD10BD08B50121102004F014FAB2
:101F20004FF4C050ADF8000010208DF803000320DE
:101F30008DF802006946834803F04AFF08BD10B5DA
:101F40008048406820F470407E49486008464068F8
:101F500040F44050486001207B4908607B49C1F84B
:101F6000B001FFF7D3FF002077490860FFF7CEFFED
:101F700000207649C1F8B00110BD10B57148406825
:101F800020F470406F4948600846406840F4405073
:101F9000486000206C49091D08606C49C1F8AC011B
:101FA000FFF7B4FF01206849091D08606749C1F8BF
:101FB000AC01FFF7ABFF10BD10B5002461484068CD
:101FC00020F470405F4948600846406840F4004093
:101FD000486001205C490860FFF798FF01205B49D9
:101FE000C1F8B001FFF792FF07E0601CC4B2FA2C01
:101FF00003DDFFF7C2FF012010BD534880380068A1
:102000000028F2D15049091D086000BFF4E710B55F
:1020100000204D49091D08604A48406820F470407E
:10202000484948600846406840F4405048600020F5
:102030004649C1F8AC01FFF769FF01204249091D7B
:102040000860FFF763FF00204049C1F8B00110BDF0
:1020500010B500203C49091D08603A48406820F44A
:102060007040384948600846406840F44050486035
:1020700001203649C1F8AC01FFF748FF0120324981
:10208000091D0860FFF742FF00203049C1F8B00188
:1020900010BD70B504462B48406820F470402949B3
:1020A00048600846406840F4405048600020264997
:1020B000091D0860002512E0E00923490860600658
:1020C000040E01202149C1F8B001FFF71FFF0020D5
:1020D0001D49091D0860FFF719FF681CC5B2082DCE
:1020E000EADB70BD70B5054600241648406820F450
:1020F0007040144948600846406840F40040486019
:10210000002615E000201049091D0860FFF7FEFEBB
:1021100001200E49C1F8B0016006040E0A4880385B
:10212000006808B1601CC4B2FFF7F0FE701CC6B2B4
:10213000082EE7DB15B9FFF78BFF01E0FFF767FF1C
:10214000204670BD00100140AC0122420000224236
:1021500038B50446F74890F82400C0B114B1022005
:10216000009001E000200090F24A1268D17BF14A11
:10217000526810786B460122FFF7C9FD10B14FF08D
:10218000FF3038BD9DF80010EA48417423E0E9486B
:10219000807A10B94FF0FF30F3E724B1E548407C76
:1021A00008B10020EDE714B10120009001E000200B
:1021B0000090E04A1268D17BDE4A526810786B4684
:1021C0000122FFF7A4FD10B14FF0FF30D9E79DF8D1
:1021D0000010D84841740020D3E738B500241FE030
:1021E000D4480068C07AA04204D0D2480068407D3C
:1021F000A04200D112E0CF49496808786B4601221D
:102200002146FFF7CFFC10B14FF0FF3038BD9DF8ED
:1022100000202146C8A005F0BFFA00BF601CC4B270
:10222000C44840680079A042DADC0020EEE770B5CF
:1022300004460D46BF480068C07AA04204D0BD489D
:102240000068407DA04202D14FF0FF3070BDB94818
:1022500040680079A04202DC4FF0FF30F6E7B54954
:10226000496808782B4601222146FFF79BFCEDE7E1
:1022700038B50446AF4890F82300A04201D10020B1
:1022800038BD14B13020009001E000200090A94832
:10229000807C20B19DF8000040F002000090A5482D
:1022A00090F8220020B19DF8000040F080000090DE
:1022B000A04A1268117D9F4A526810786B4601222D
:1022C000FFF725FD10B14FF0FF30D9E7994880F8AE
:1022D00023400020D4E738B5044604F0700010B164
:1022E0000120009005E014B10020009001E04020A2
:1022F0000090904A1268917C8E4A526810786B4622
:102300000122FFF704FD20B100218A488172481E96
:1023100038BD9DF8000020F0400186480173002080
:10232000009004F0400020B99DF8000040F0040047
:10233000009004F0200020B99DF8000040F0020059
:10234000009004F0100020B99DF8000040F001005A
:10235000009004F0080020B99DF8000040F038001B
:102360000090744A1268D17C724A526810786B46A9
:102370000122FFF7CCFC20B100216E488172481E7B
:10238000C6E724B1082C02D00020FFF771FF69488E
:10239000847200210175322003F021FB0020B7E791
:1023A00038B504466348807CA04201D1002038BD86
:1023B000002C46D05F4A126811795E4A5268107844
:1023C0006B460122FFF7EEFB10B14FF0FF30EEE756
:1023D0009DF8000020F020000090564A1268117904
:1023E000544A526810786B460122FFF790FC10B1F6
:1023F0004FF0FF30DBE7032003F0F1FA02200090FA
:102400004C4890F8220020B19DF8000040F0800078
:102410000090484890F8230020B19DF8000040F05B
:1024200030000090434A1268117D424A5268107889
:102430006B460122FFF76BFC002851D04FF0FF30B4
:10244000B5E73C4A126811793A4A526810786B46EF
:102450000122FFF7A7FB10B14FF0FF30A7E7354887
:10246000807A00F0010028B19DF8000040F02000C3
:10247000009004E09DF8000020F0200000902D4A1C
:10248000126811792B4A526810786B460122FFF7C7
:102490003EFC10B14FF0FF3089E7032003F09FFAB4
:1024A000244890F8220010B18020009001E0002024
:1024B0000090204890F8230020B19DF8000040F0E3
:1024C000300000901B4A1268117D1A4A5268107839
:1024D0006B460122FFF71BFC10B14FF0FF3066E79F
:1024E00014488474002062E708B51248807A10B955
:1024F0004FF0FF3008BD002000900E4A1268D17BDB
:102500000C4A526810786B460122FFF700FC10B1AC
:102510004FF0FF30EEE7074A12685179054A5268DA
:1025200010786B460122FFF7F2FB68B14FF0FF30E5
:10253000E0E7000078000020252335783A202523A5
:1025400035780D0A00000000F84A12681179F74A40
:10255000526810786B460122FFF7D9FB10B14FF09B
:10256000FF30C7E7F14890F82400002853D00C2032
:102570000090EE4A12681179EC4A526810786B4666
:102580000122FFF7C4FB10B14FF0FF30B2E7322059
:1025900003F025FAC0200090E448807A00F00100A2
:1025A00020B19DF8000040F020000090DF4A126842
:1025B0001179DE4A526810786B460122FFF7A7FBBB
:1025C00010B14FF0FF3095E7D848407C10B10220A1
:1025D000009001E000200090D44A1268D17BD34AD9
:1025E000526810786B460122FFF791FB10B14FF053
:1025F000FF307FE700200090CC4A12685179CB4A27
:10260000526810786B460122FFF781FB002855D0F5
:102610004FF0FF306EE704200090C44A1268117931
:10262000C24A526810786B460122FFF770FB10B166
:102630004FF0FF305EE7BD48807C20B9BB48807A10
:1026400000F0010010B94020009001E060200090EF
:10265000B64A12681179B54A526810786B46012261
:10266000FFF755FB10B14FF0FF3043E7322003F086
:10267000B6F9AE48407C10B10120009001E0002086
:102680000090AA4A1268D17BA84A526810786B461B
:102690000122FFF73CFB10B14FF0FF302AE7A34ABD
:1026A00012685179A14A52681078A04B1033012268
:1026B000FFF72DFB10B14FF0FF301BE7002019E7AB
:1026C00070B50446002624F00104984890F82400D0
:1026D00008B1002070BD9548807A10B94FF0FF30E6
:1026E000F8E79248057C807A2040904908740846B3
:1026F000007CA04202D04FF0FF3600E0002614B963
:102700008A48007D18B10120FFF722FD02E0002079
:10271000FFF71EFD3CB1FFF7E7FE20B183480574CB
:102720004FF0FF30D6E73046D4E738B504467F484F
:10273000807A10B94FF0FF3038BDBC2C02DB01208D
:10274000009015E0622C02DB0220009010E02A2CA1
:1027500002DB032000900BE0142C02DB042000902D
:1027600006E00A2C02DB0520009001E00620009024
:102770006E48C07A9DF80010884201D10020DBE746
:102780006A4A12689178694A526810786B46012249
:10279000FFF7BDFA10B14FF0FF30CDE79DF8001004
:1027A0006248C1720020C7E738B50446282C02DD14
:1027B0004FF0FF3038BDDCB90020FFF759FD002095
:1027C0008DF8000007208DF80100584A1268917CAE
:1027D000564A526810786B460222FFF798FA10B1F9
:1027E0004FF0FF30E6E70021504801750020E1E797
:1027F0000120FFF73DFD20208DF80000012C06D1BF
:1028000000208DF801000520FFF78FFF17E0052C51
:1028100006DC01208DF801000520FFF786FF0EE0A1
:10282000142C06DC02208DF801000A20FFF77DFF42
:1028300005E003208DF801001420FFF776FF9DF8D6
:102840000100072101EB8010C0B28DF80100374A6A
:102850001268917C354A526810786B460222FFF765
:1028600056FA10B14FF0FF30A4E708212F488172CB
:1028700000210173012101750020FFF721FF0020D5
:1028800098E738B504462948807A10B94FF0FF30F0
:1028900038BD264890F8240010B14FF0FF30F7E71C
:1028A0002248007D50B134B1282C04DCE0B2FFF79F
:1028B0007BFF0020ECE70020FFF776FF042C01DA15
:1028C000042404E0B4F57A7F01DD4FF47A744FF408
:1028D0007A7090FBF4F0401EC0B20090134A126868
:1028E0005178124A526810786B460122FFF70FFAAE
:1028F00010B14FF0FF30CBE79DF80000401C4FF4C3
:102900007A7191FBF0F081B20848C1810146C98912
:102910004810FFF70AFF0020BAE738B5044603481D
:10292000807A28B94FF0FF3038BD000078000020D1
:10293000022C06D0042C07D0082C08D0102C0CD167
:1029400008E0002000900BE00820009008E0102034
:10295000009005E01820009002E04FF0FF30E3E720
:1029600000BFF948407A9DF80010B0EBE10F01D1AB
:102970000020D9E7F44A1268D179F34A52681078F6
:102980006B460122FFF7C3F910B14FF0FF30CBE7E0
:102990009DF80000C110EC4841720020C4E738B532
:1029A0000446E948807A10B94FF0FF3038BDFA2C60
:1029B00009D0B4F5FA7F09D0B4F57A7F09D0B4F51F
:1029C000FA6F0CD108E0002000900BE00820009086
:1029D00008E01020009005E01820009002E04FF081
:1029E000FF30E3E700BFD848007A9DF80010B0EB55
:1029F000E10F01D10020D9E7D34A12689179D24A78
:102A0000526810786B460122FFF781F910B14FF040
:102A1000FF30CBE79DF80000C010CB4908720020C2
:102A2000C4E71CB580208DF80000C74A1268917C6D
:102A3000C54A526810786B460122FFF768F910B159
:102A40004FF0FF301CBD642002F0C9FF00208DF85C
:102A50000000BD4A1268917CBB4A526810786B46F0
:102A60000122FFF754F910B14FF0FF30EAE7B64A00
:102A70001268917DB44A526810786B460622FFF7BF
:102A800091F810B14FF0FF30DCE79DF80500C0076A
:102A9000400F9DF8031001F0010140EA41009DF84C
:102AA000011001F0010140EA010494B1012C03D1AD
:102AB0000121A548C17431E0022C03D10021A248B4
:102AC000C1742BE02146A1A004F066FE4FF0FF3058
:102AD000B8E79D4A1268D1789B4A526810786B46D5
:102AE0000122FFF75FF810B14FF0FF30AAE79DF821
:102AF000000000F00F042CB99E4804F04DFE4FF08A
:102B0000FF309FE7042C06D19BA004F045FE012175
:102B10008D48C17402E000218B48C174FF218A48AE
:102B20008172FF2088490872FF2187484172C17273
:102B30004FF6FF71C181FF2101748174012101737E
:102B400080F82210002180F823104175017516309D
:102B5000016041608160163880F8241080F82510EB
:102B6000C1844FF4FA60FFF71AFF10B14FF0FF3045
:102B700068E70220FFF7D1FE10B14FF0FF3061E7A8
:102B80002A20FFF7D2FD10B14FF0FF305AE7322074
:102B9000FFF777FE10B14FF0FF3053E70020FFF74B
:102BA0008FFD10B14FF0FF304CE70020FFF7F8FB2E
:102BB00010B14FF0FF3045E70020FFF78CFB0020FD
:102BC00040E770477CB504460D465F48807A00F0C8
:102BD000700010B94FF0FF307CBD5B4A1268117B6A
:102BE000594A526810786B460622FEF7DBFF10B197
:102BF0004FF0FF30F0E79DF801009DF8001040EA2B
:102C0000012000B220809DF803009DF8021040EAE8
:102C1000012000B260809DF805009DF8041040EA94
:102C2000012000B2A08015B12846FFF7CAFF00209E
:102C3000D2E77CB504460D464348807A00F0080090
:102C400010B94FF0FF307CBD3F4A1268517B3E4ABD
:102C5000526810786B460622FEF7A4FF10B14FF0C1
:102C6000FF30F0E79DF801009DF8001040EA0120D8
:102C700000B220809DF803009DF8021040EA012078
:102C800000B260809DF805009DF8041040EA012024
:102C900000B2A08015B12846FFF793FF0020D2E7CD
:102CA0002DE9FE4F05460C462748807A18B94FF0AB
:102CB000FF30BDE8FE8F244A1268917B224A526899
:102CC000107802AB0222FEF76DFF10B14FF0FF301B
:102CD000EFE79DF809009DF8081040EA012006B2D0
:102CE00014B12046FFF76DFF17494968C88807F0FF
:102CF0000FFB154901904968B1F9080007F0F0FA97
:102D00008346304607F0ECFA5946009007F050FC35
:102D10008246019907F0B2F981461F4907F040F950
:102D200080464FF08F4107F03BFB074607F09CFAC7
:102D300028600020BDE710B588B004461CB94FF0EC
:102D4000FF3008B010BD29E078000020556E737583
:102D500070706F7274656420736F667477617265EA
:102D60002070726F64756374207265762025642EFE
:102D70000A000000ACBD000848616C662073656EF7
:102D80007369746976697479207061727420666FF2
:102D9000756E642E0A00000000000C42206830B9F5
:102DA000606820B9A06810B9002008B010BDFA49C9
:102DB0004968087806AB03221146FEF7F3FE10B10E
:102DC0004FF0FF30F1E79DF81800082101EB2010CB
:102DD00000F00F00ADF800009DF8190001EB201085
:102DE00000F00F00ADF802009DF81A0001EB201072
:102DF00000F00F00ADF8040020684100BDF90000AC
:102E0000403091FBF0F000B2ADF810006068410076
:102E1000BDF90200403091FBF0F000B2ADF81200B5
:102E2000A0684100BDF90400403091FBF0F000B211
:102E3000ADF81400D8494968087806AB0622114657
:102E4000FEF7B0FE10B14FF0FF30AEE79DF819006D
:102E50009DF8181040EA012000B2ADF808009DF876
:102E60001B009DF81A1040EA012000B2ADF80A00DC
:102E70009DF81D009DF81C1040EA012000B2ADF83D
:102E80000C00BDF81000BDF80810084400B2ADF801
:102E90001000BDF81200BDF80A10084400B2ADF8E9
:102EA0001200BDF81400BDF80C10084400B2ADF8D3
:102EB0001400BDF81000000A8DF81800BDF81000CD
:102EC000C0B28DF81900BDF81200000A8DF81A0082
:102ED000BDF81200C0B28DF81B00BDF81400000A46
:102EE0008DF81C00BDF81400C0B28DF81D00AA4971
:102EF0004968087806AB06221146FEF708FF10B1B4
:102F00004FF0FF3051E700204FE70146A248007A1A
:102F100030B1012807D0022809D003280FD10AE0D8
:102F2000FA2008800EE04FF4FA7008800AE04FF4AF
:102F30007A70088006E04FF4FA60088002E0002012
:102F4000088000BF00BF0020704701469248407AC9
:102F500030B1012807D0022808D003280CD108E09E
:102F6000022008700BE00420087008E008200870B8
:102F700005E01020087002E04FF0FF30704700BFFE
:102F80008548C07C18B108784006000E0870002003
:102F9000F4E701468048C07A082817D2DFE800F03D
:102FA0001704070A0D101318BC20088013E06220D4
:102FB000088010E02A2008800DE0142008800AE034
:102FC0000A20088007E00520088004E000BF00BF59
:102FD0000020088000BF00BF0020704701466E48F7
:102FE00090F8240010B14FF0FF3070476A48C08954
:102FF00008800020F9E7014600200880401E704745
:1030000001464FF0FF30704701466348007A30B107
:10301000012807D0022808D003280CD108E05F4817
:1030200008600BE05E48086008E05E48086005E064
:103030005D48086002E04FF0FF30704700BF00209D
:10304000FBE701465448407A30B1012808D00228F5
:103050000AD0032810D10BE04FF4804008800EE026
:1030600041F69C7008800AE04FF48050088006E02A
:103070004FF40060088002E04FF0FF30704700BF5F
:103080004548C07C10B10888401008800020F5E752
:1030900001464148007C08700020704701463E48C8
:1030A000807A10B10120087001E000200870002033
:1030B000704738B504463848807A10B94FF0FF3071
:1030C00038BD354A1268117C334A526810786B4615
:1030D0000222FEF767FD10B14FF0FF30F0E79DF8D8
:1030E00001009DF8001040EA012000B2208000207D
:1030F000E6E72DE9FE4F0746884692461D46DDF875
:1031000030B000260024244890F8240010B1601E3E
:10311000BDE8FE8F002028701F48807A10B94FF05C
:10312000FF30F5E71C48007C10B94FF0FF30EFE7A7
:103130001948007C00F0400008B1B01CC6B2164827
:10314000007C00F0200008B1B01CC6B21248007C20
:1031500000F0100008B1B01CC6B20F48007C00F0AF
:10316000080008B1B01DC6B20B4A1268917A0A4A2B
:10317000526810786B460222FEF714FD10B14FF032
:10318000FF30C5E79DF801009DF8001040EA0129D5
:10319000B1450BDA0020BBE77800002000000343B4
:1031A000000083423333034233338341FC48406899
:1031B0004088B9EB600F17DDF94A1268517CF84A74
:1031C000526810786B460122FEF7ECFC10B14FF00C
:1031D000FF309DE79DF8000000F0100020B1FFF7E0
:1031E00083F96FF0010093E75046FFF7EAFCEC4AE1
:1031F0001268D17AEA4A526810786B463246FEF776
:10320000D1FC10B14FF0FF3082E799FBF6F0401E81
:103210008BF8000000202870B4422AD0E048007CDF
:1032200000F0080028B3601C1DF800001DF8041011
:1032300040EA012000B2A8F80000E01C1DF80010D0
:10324000A01C1DF8000041EA002000B2A8F802000E
:10325000601D1DF80010201D1DF8000041EA00202F
:1032600000B2A8F80400287840F008002870A01DDB
:1032700084B2B44213D0CA48007C00F0400070B160
:10328000601C1DF800001DF8041040EA012000B287
:103290003880287840F040002870A01C84B2B442E6
:1032A00013D0BF48007C00F0200070B1601C1DF8F6
:1032B00000001DF8041040EA012000B27880287850
:1032C00040F020002870A01C84B2B44213D0B4484F
:1032D000007C00F0100070B1601C1DF800001DF8AB
:1032E000041040EA012000B2B880287840F01000B5
:1032F0002870A01C84B200200AE7F8B504460F46E7
:103300001646A74890F8240010B94FF0FF30F8BDDA
:10331000A348807A10B94FF0FF30F8E7A04A12684E
:10332000917A9F4A526810786B460222FEF73AFC67
:1033300010B14FF0FF30EAE79DF801009DF8001052
:1033400040EA0125A54203DA00203070401EDEE786
:10335000934840684088B5EB600F17DD904A1268CB
:10336000517C8F4A526810786B460122FEF71AFC96
:1033700010B14FF0FF30CAE79DF8000000F01000D8
:1033800020B1FFF7B1F86FF00100C0E7E2B2844B63
:103390001B68D97A824B5B6818783B46FEF702FCC3
:1033A00010B14FF0FF30B2E795FBF4F0401E3070E3
:1033B0000020ACE701467A4880F8221000207047D0
:1033C0007CB5054676494968087801AB04220D2191
:1033D000FEF7E8FB08B107207CBD9DF80700C0F3AD
:1033E00001109DF8041001F0E00140EAE1008DF8C1
:1033F00000009DF80700C0F381009DF8051001F062
:10340000E00140EAE1008DF801009DF8070000F0BE
:1034100003009DF8061001F0E00140EAE1008DF89C
:10342000020000241CE01DF8040018B9002045F833
:10343000240013E05B4845F8240006E055F824001A
:10344000594906F0ADFF45F824001DF80400401E60
:10345000C0B20DF804000028F0D100BF601CC4B257
:10346000032CE0DB0020B7E72DE9FE4F06460F46B0
:1034700000256846FFF7A4FF002442E056F8240028
:1034800057F82410A0EB010ABAF1000F01DB5146F6
:1034900001E0CAF10001084606F022FF83464FF022
:1034A0008F4106F0EBFD80465DF82400002106F018
:1034B000A7FE16D05DF82410404606F0DFFD8246D8
:1034C0004FF07E5107F074F8814629F0004A3748E2
:1034D000416A504607F030F812D20120A04005435F
:1034E0000EE03248C169404606F026FF05D32F485A
:1034F000016A404607F020F802D20120A0400543AF
:10350000641C032CBADB2846BDE8FE8F2DE9FC5F66
:1035100006460F46002522494968087801AB032278
:103520000D21FEF73FFB10B10720BDE8FC9F9DF881
:10353000040000F01F008DF804009DF8050000F065
:103540001F008DF805009DF8060000F01F008DF8A3
:103550000600002462E056F8240057F82410A0EB7F
:10356000010BBBF1000F01DB594601E0CBF100017B
:10357000084606F0B5FE4FF08F41009006F07EFD44
:10358000814601A8005DC0B30849086806F0C0FE86
:1035900083465946064806F071FD80460FE000005C
:1035A000780000207B14AE3E1D5A843FD0AF000847
:1035B00000B04C45FE49404606F0F2FE804601A8A8
:1035C000005D401EC0B201A908550028F2D1414655
:1035D000484606F053FD83464FF07E5106F0E8FF63
:1035E00082462AF0004BF3488169584606F0A4FF52
:1035F00013D20120A04005430FE0FFE7ED48016929
:10360000484606F099FE05D3EA484169484606F067
:1036100093FF02D20120A0400543641C032C9ADBD7
:10362000284682E72DE9F04F87B005460C469146C3
:1036300001208DF8100000208DF81100DE4A12687C
:10364000917CDD4A5268107804AB0222FEF75FFBE2
:1036500020B14FF0FF3007B0BDE8F08FC82002F076
:10366000BEF900208DF81000D34A1268D17BD24AEF
:103670005268107804AB0122FEF749FB10B14FF0FD
:10368000FF30E8E7CC4A12685179CB4A526810788B
:1036900004AB0122FEF73BFB10B14FF0FF30DAE73D
:1036A000C54A1268917CC44A5268107804AB012262
:1036B000FEF72DFB10B14FF0FF30CCE7BE4A126889
:1036C000D17DBD4A5268107804AB0122FEF71FFB82
:1036D00010B14FF0FF30BEE7B74A12681179B64A11
:1036E0005268107804AB0122FEF711FB10B14FF0C5
:1036F000FF30B0E70C208DF81000AF4A1268117946
:10370000AD4A5268107804AB0122FEF700FB10B1FD
:103710004FF0FF309FE70F2002F061F9A648806A62
:10372000407A8DF81000A44A12689178A24A526833
:10373000107804AB0122FEF7EAFA10B14FF0FF3027
:1037400089E79D48806A007A8DF810009A4A1268CD
:103750005178994A5268107804AB0122FEF7D7FAE3
:1037600010B14FF0FF3076E7B9F1000F07D0924863
:10377000806A807A40F0E0008DF8100004E08E4806
:10378000806A807A8DF810008B4A126891798A4A93
:103790005268107804AB0122FEF7B9FA10B14FF06D
:1037A000FF3058E7B9F1000F07D08348806AC07A2C
:1037B00040F0E0008DF8100003E07E48C07A8DF8FC
:1037C00010007D4A1268D1797B4A5268107804ABA8
:1037D0000122FEF79CFA10B14FF0FF303BE7B9F140
:1037E000000F02D0C82002F0FAF840208DF8100037
:1037F000714A12681179704A5268107804AB01223C
:10380000FEF785FA10B14FF0FF3024E778208DF8ED
:103810001000694A12685179674A5268107804ABFF
:103820000122FEF774FA10B14FF0FF3013E761493F
:10383000888902F0D4F800208DF810005E4A1268E2
:1038400051795D4A5268107804AB0122FEF75FFAA5
:1038500010B14FF0FF30FEE6574A1268917A564A8F
:103860005268107804AB0222FEF79CF910B14FF0B9
:10387000FF30F0E69DF811009DF8101040EA012B92
:103880000C209BFBF0F0C6B20020A86068602860A6
:10389000A06060602060824665E0474A1268D17A85
:1038A000454A5268107804AB0C22FEF77BF910B140
:1038B0004FF0FF30CFE69DF811009DF8101040EA60
:1038C000012000B2ADF808009DF813009DF8121019
:1038D00040EA012000B2ADF80A009DF815009DF8FD
:1038E000141040EA012000B2ADF80C00BDF9081038
:1038F000206808442060BDF90A10606808446060D0
:10390000BDF90C10A0680844A0609DF817009DF850
:10391000161040EA012000B2ADF800009DF8190031
:103920009DF8181040EA012000B2ADF802009DF8A1
:103930001B009DF81A1040EA012000B2ADF8040007
:10394000BDF90010286808442860BDF902106868B5
:1039500008446860BDF90410A8680844A8600AF12A
:10396000010000F0FF0AB24597DB1248D0F800C012
:103970002868C117090441EA104107046246002380
:10398000384603F0E5FE32460023CDE9020103F09C
:10399000DFFE28600748D0F800C06868C117090436
:1039A00041EA1041070462460023384606E0000061
:1039B00054E3853FD0AF00087800002003F0C8FE34
:1039C00032460023CDE9020103F0C2FE6860FE48E2
:1039D000D0F800C0A868C117090441EA10410704E3
:1039E00062460023384603F0B3FE32460023CDE999
:1039F000020103F0ADFEA860F348D0F804C02168CE
:103A0000C817000440EA11480F04624600233846F4
:103A1000414603F09DFE32460023CDE9020103F04A
:103A200097FE2060E848D0F804C06068C117090418
:103A300041EA1041070462460023384603F088FE3D
:103A400032460023CDE9020103F082FE6060DE48C9
:103A5000D0F804C0A068C117090441EA1041070466
:103A600062460023384603F073FE32460023CDE958
:103A7000020103F06DFEA060A068002804DDA068CC
:103A8000A0F58030A06003E0A06800F58030A06061
:103A90000020E0E538B50446CC4890F82400A04268
:103AA00001D1002038BD24B3C84890F8250010B9D2
:103AB0004FF0FF30F6E70020FEF74AFB0020FEF74C
:103AC0006FFCC249C88CFEF7DCFE00200090BF49A5
:103AD000496808786B4601222321FEF718F9012175
:103AE000BA4880F824100120FEF732FBFEF7FCFCF8
:103AF00013E00020FEF72CFBB448007C0090B34993
:103B0000496808786B4601222321FEF700F900215D
:103B1000AE4880F82410FEF7E7FC0020C2E72DE94C
:103B2000F04F8DB083460F4602200C90A74890F8C6
:103B3000240020B10020FFF7ADFF012600E00026A1
:103B400003A8FFF7E2F905A8FFF7FFF901A8FFF7BF
:103B500020FA02A8FFF742FA9C4890F80AA004A8AD
:103B6000FFF796FA002407E0002239465846FFF78F
:103B700059FD00B902E0641C022CF5DB00BF022CE9
:103B800001D1002528E0002407E0012206A909A8A8
:103B9000FFF748FD00B902E0641C022CF5DB00BF12
:103BA000022C01D1002517E006A93846FFF75CFC7E
:103BB00000F0FF0809A95846FFF7A8FC00F0FF092C
:103BC0000025B9F1000F01D145F00105B8F1000F52
:103BD00001D145F0020500BFFF207C490872FF219A
:103BE0007A484172C1724FF6FF71C181FF21817223
:103BF000017401210173BDF80C00FEF7D0FE9DF8A1
:103C00001400FEF78AFEBDF80400FEF78EFDBDF835
:103C10000800FEF736FE5046FEF75DFB9DF81000EB
:103C2000FEF74EFD16B10120FFF734FF28460DB018
:103C3000BDE8F08FF8B504460D46164616B94FF0AC
:103C4000FF30F8BD6148807A10B94FF0FF30F8E7D7
:103C500020128DF80000E0B28DF801009DF80100FF
:103C600028445A4949684989884202DD4FF0FF30AB
:103C7000E7E7564A1268117E544A526810786B463C
:103C80000222FEF744F810B14FF0FF30D9E7EAB254
:103C90004E4B1B68597D4D4B5B6818783346FEF7D9
:103CA00036F810B14FF0FF30CBE70020C9E7F8B588
:103CB00004460D46164616B94FF0FF30F8BD43488E
:103CC000807A10B94FF0FF30F8E720128DF800002D
:103CD000E0B28DF801009DF8010028443B49496895
:103CE0004989884202DD4FF0FF30E7E7374A126822
:103CF000117E364A526810786B460222FEF707F8AA
:103D000010B14FF0FF30D9E7EAB2304B1B68597D54
:103D10002E4B5B6818783346FDF744FF10B14FF027
:103D2000FF30CBE70020C9E72DE9F04385B0054619
:103D30000E4690469946254890F8250020B14FF050
:103D4000FF3005B0BDE8F08316B94FF0FF30F8E75B
:103D5000002423E0281B102801DD102000E0281B90
:103D600087B2321939462046FFF764FF10B14FF091
:103D7000FF30E6E701AA39462046FFF798FF10B169
:103D80004FF0FF30DDE730193A4601A903F03CFE61
:103D900010B16FF00100D4E7E01984B2AC42D9DB76
:103DA0004FEA28208DF8000008F0FF008DF8010090
:103DB000064A1268917E054A526810786B460222C4
:103DC000FDF7A5FF38B103E0D0AF00087800002070
:103DD0004FF0FF30B5E70121FE4880F82510A0F82C
:103DE00026900020ADE70146FA4890F824000870BC
:103DF000002070474FF0FF30704702464FF0FF3011
:103E0000704701464FF0FF307047F8B505460F4642
:103E10001446002C70D0B5F5FF5F01DDFF2605E0EC
:103E2000202D01DA012601E0C5F3471607B9012765
:103E3000282C02DD4FF0FF30F8BDE648407D28BB5E
:103E4000E44890F8240038B10020FFF723FE012158
:103E5000E04880F8201003E00021DE4880F82010C0
:103E6000DC481630FFF751F8DA481830FFF76DF8E4
:103E7000D8481A30FFF78DF8D6481C30FFF7AEF857
:103E8000D448817A81771F30FFF702F90020FEF7CE
:103E90005FF90020FEF788FC00208DF80000CD4A75
:103EA00012689178CB4A526810786B460122FDF770
:103EB0002EFF10B14FF0FF30BEE740208DF800001C
:103EC000C44A1268D17BC34A526810786B460122FB
:103ED000FDF71DFF00B165E08DF800608DF8017001
:103EE000BC4A1268117ABB4A526810786B460222AB
:103EF000FDF70DFF08B155E047E0052001F06FFD2B
:103F0000B448407A072101EBC000C0B28DF8000030
:103F1000B04A1268D179AF4A526810786B460122D4
:103F2000FDF7F5FE00B13DE020208DF80000012CEA
:103F300003D100208DF801000EE0052C03DC0120E8
:103F40008DF8010008E0142C03DC02208DF801003C
:103F500002E003208DF801009DF80100072101EB2C
:103F60008010C0B28DF801009A4A1268917C994A7B
:103F7000526810786B460222FDF7C9FE00B111E0CD
:103F8000012194484175002056E7924A16320021DB
:103F900003E0505C00B105E0491C0C29F9D34FF057
:103FA000FF3049E7FF208B490872FF2189484172A1
:103FB000C1724FF6FF71C181FF218172017401212D
:103FC00001730146887FFEF786F98249C88AFEF7A9
:103FD000E6FC8049087EFEF7A0FC7E49488BFEF790
:103FE000A4FB7C49888BFEF74CFC7A49C87FFEF71E
:103FF00067FB784890F8200010B10120FFF74AFDD8
:10400000002174484175002016E770B588B002A9F8
:1040100005A8FFF784FD0446072C3ED101A8FEF752
:10402000F3FF059806F05CF90646019906F0B8F929
:10403000054606F019F90590069806F051F906466E
:10404000019906F0ADF9054606F00EF906900798BD
:1040500006F046F90646019906F0A2F9054606F073
:1040600003F9079005A800F052FA6846FEF7E9FF49
:10407000BDF80010029848430290BDF80010039864
:1040800048430390BDF8001004984843049002A8E8
:1040900000F0D0FA002008B070BD0120FBE7014617
:1040A00091F90020002A01DD00201EE091F9002096
:1040B000002A01DA042018E091F90120002A01DD2C
:1040C000012012E091F90120002A01DA05200CE01C
:1040D00091F90220002A01DD022006E091F9022078
:1040E000002A01DA062000E00720704710B50446D8
:1040F0002046FFF7D4FF0346E01CFFF7D0FF43EA5A
:10410000C00083B2A01DFFF7CAFF43EA801083B24C
:10411000184610BD70B50024FDF7FDFEFEF781FCCA
:1041200000283DD17820FEF7D6F8C4B20CB10120AA
:1041300070BD7820FEF7C4FAC4B20CB10220F7E7D4
:104140006420FEF79EFBC4B20CB10320F0E700F040
:1041500043F9C4B20CB10420EAE71F48FFF7C6FFD9
:10416000054600F043F9C4B20CB10520E0E740F287
:10417000731000F07CFDC4B20CB10620D8E76420B7
:1041800000F0EEFAC4B20CB10720D1E7FFF73DFF13
:1041900004460120FFF77EFCC4B21CB10920C7E72A
:1041A0000A20C5E70020C3E72DE9F04F99B0044687
:1041B0000D4616464FF07E574FF000084FF00009AD
:1041C0004FF0000A12A813A918AB0EAACDE90010EF
:1041D00014A903E078000020A400002016A800F035
:1041E000A5FE18B1012019B0BDE8F08FBDF84C0054
:1041F00000F4807000287CD00E9806F071F8834699
:104200004FF09D4105F03AFF07460F9806F068F819
:1042100083464FF09D4105F031FF8046109806F02F
:104220005FF883464FF09D4105F028FF81461198C5
:1042300006F056F883464FF09D4105F01FFF824679
:1042400039464FF0804006F0ABF84946059006F03D
:10425000A7F8414607904FF0404006F0A1F85146BC
:10426000059006F09DF80690079905F099FE8346A3
:1042700005F06AFECDE9080104F03EFD4FF066321C
:10428000544BCDE90A0105F085FBCDE90C0105F0A1
:1042900077F8206049464FF0804006F081F84946A3
:1042A000029006F07DF8414604904FF0404006F041
:1042B00077F84146029006F073F80390049906F0EF
:1042C00077F983464FF07E5105F06AFE059005F0C0
:1042D0003BFECDE9080139464FF0804006F060F81A
:1042E0004146039006F05CF8494604904FF0804048
:1042F00000E06AE006F054F85146039006F050F8EA
:104300008346049905F04CFE059005F01DFECDE9AD
:104310000601DDE9082304F037FF4FF066322D4B2C
:10432000CDE90A0105F036FBCDE90C0105F028F8CE
:1043300028605146504606F033F8494604904846F6
:1043400006F02EF841460390404606F029F839461B
:104350000190384606F024F80090019905F020FEFF
:104360000290039906F024F98346049906F020F997
:10437000059005F0E9FDCDE908015146384606F003
:104380000FF849460490404606F00AF80390049955
:1043900005F006FE4FF08041059006F001F88346D7
:1043A00005F0D2FDCDE90601DDE9082304F0ECFEBD
:1043B0004FF06632074BCDE90A0105F0EBFACDE983
:1043C0000C0104F0DDFF306001E002200BE700206B
:1043D00009E7000066A64C4010B5C8234FF4806280
:1043E000F74940F6F630FFF79FFC10BD10B586B0D8
:1043F0000446F4A000680390F3A000680290F3A0C4
:1044000000680190F2A00068009004F0030003A986
:10441000085C8DF8140003A8C4F3C101405C8DF85A
:10442000150003A8C4F38111405C8DF8160004F058
:10443000030002A9085C8DF8100002A8C4F3C101B2
:10444000405C8DF8110002A8C4F38111405C8DF826
:10445000120005AA032140F22640FFF7EBFB18B13A
:104460004FF0FF3006B010BD04AA032140F22A40ED
:10447000FFF7E0FB10B14FF0FF30F3E70198059034
:104480000098049004F0040058B19DF8140040F026
:1044900001008DF814009DF8100040F001008DF827
:1044A000100004F0200058B19DF8150040F0010004
:1044B0008DF815009DF8110040F001008DF81100F5
:1044C00004F4807058B19DF8160040F001008DF89A
:1044D00016009DF8120040F001008DF8120005AAA8
:1044E00003214FF48860FFF7A5FB10B14FF0FF30B8
:1044F000B8E704AA032140F23140FFF79BFB10B15B
:104500004FF0FF30AEE7B34804810020AAE71FB5A3
:104510000446B048007A00F0030054F820000190EF
:10452000AC48007A00F0040010B1019840420190BC
:10453000A848007AC0F3C10054F820000290A548B2
:10454000007A00F0200010B1029840420290A14889
:10455000007AC0F3811054F8200003909D48008930
:1045600000F4807010B10398404203909A4901987A
:1045700080FB0101800F40EA81000190964902987A
:1045800080FB0110820042EA9170029092490398E8
:1045900080FB0110820042EA917003900198000EA6
:1045A0008DF800000198000C8DF801000198000AB8
:1045B0008DF802000198C0B28DF803006A4604210C
:1045C0004FF47470FFF736FB18B14FF0FF3004B0B2
:1045D00010BD0298000E8DF800000298000C8DF8B6
:1045E00001000298000A8DF802000298C0B28DF80E
:1045F00003006A4604214FF47570FFF71BFB10B1EE
:104600004FF0FF30E3E70398000E8DF800000398A9
:10461000000C8DF801000398000A8DF80200039841
:10462000C0B28DF803006A4604214FF47670FFF79C
:1046300001FBCCE770B588B0064601A8FEF701FD86
:10464000BDF804000021C90341EA5045C403614894
:10465000007A00F0030056F8200005905D48007ACB
:1046600000F0040010B10598404205905948007AC6
:10467000C0F3C10056F8200006905648007A00F0BA
:10468000200010B10698404206905248007AC0F3CC
:10469000811056F8200007904E48008900F4807081
:1046A00010B10798404207900598C117A0FB04235A
:1046B00001FB043100FB0510810041EA9270059076
:1046C0000698C117A0FB042301FB043100FB051071
:1046D000810041EA927006900798C117A0FB04235D
:1046E00001FB043100FB0510810041EA9270079044
:1046F0000598000E8DF808000598000C8DF809004B
:104700000598000A8DF80A000598C0B28DF80B00D4
:104710000698000E8DF80C000698000C8DF80D0020
:104720000698000A8DF80E000698C0B28DF80F00AA
:104730000798000E8DF810000798000C8DF81100F6
:104740000798000A8DF812000798C0B28DF8130080
:1047500002AA0C214FF42570FFF76CFA08B070BD67
:1047600030B585B004461DA207CA02AB07C3C82CEA
:1047700003DD4FF0FF3005B030BDC82090FBF4F0F2
:10478000401E85B2280A8DF80000E8B28DF80100BD
:104790006A46022140F21620FFF74CFA10B14FF0A2
:1047A000FF30E8E702AA0C2140F6C120FFF742FAE9
:1047B00010B14FF0FF30DEE7064884810020DAE7D1
:1047C000F8AF00084CCD6C000CC92C0036567600B2
:1047D000264666000003002009E3CA02FEF2ABC4CD
:1047E000AAF1DFDFBBAFDFDF0146FC48808908802C
:1047F000002070472DE9FC4706460F4606F00700EB
:1048000010B1B7F5C86F03DD4FF0FF30BDE8FC878E
:10481000384605F07DFD8146F14905F02FFC8046C4
:104820006846FEF792FB9DF80000022806D0042897
:1048300016D0082826D0102848D135E04FF08D41F9
:10484000404605F0ADFD814605F02AFD84B2E549FC
:10485000404605F0A5FD814605F022FD85B238E011
:104860004FF08C41404605F09BFD814605F018FD58
:1048700084B2DD49404605F093FD814605F010FD08
:1048800085B226E04FF08B41404605F089FD814618
:1048900005F006FD84B2D549404605F081FD81460C
:1048A00005F0FEFC85B214E04FF08A41404605F069
:1048B00077FD814605F0F4FC84B2CD49404605F011
:1048C0006FFD814605F0ECFC85B202E04FF0FF3051
:1048D0009CE700BF20128DF80400E0B28DF80500BF
:1048E00028128DF80600E8B28DF8070006F00100E6
:1048F000A0B101AA02214FF4EA70FFF79BF910B1B1
:104900004FF0FF3082E70DF1060202214FF4927062
:10491000FFF790F910B14FF0FF3077E706F0020093
:10492000A0B101AA02214FF4EC70FFF783F910B196
:104930004FF0FF306AE70DF1060202214FF4947048
:10494000FFF778F910B14FF0FF305FE706F0040091
:10495000A0B101AA02214FF4EE70FFF76BF910B17C
:104960004FF0FF3052E70DF1060202214FF496702E
:10497000FFF760F910B14FF0FF3047E7002045E73F
:1049800038B504460020009004F0010020B19DF8E5
:10499000000040F03000009004F0020020B19DF8CB
:1049A000000040F00C00009004F0040020B19DF8DD
:1049B000000040F0030000906A4601214FF4A4700B
:1049C000FFF738F938BD38B50446012C01DA012467
:1049D00002E0042C00DD0424601EC0B200906A4690
:1049E000012140F24F10FFF725F938BD38B50446D4
:1049F000052094FBF0F085B228128DF80000E8B293
:104A00008DF801006A4602214FF4EF70FFF712F9AA
:104A100038BD38B50446052094FBF0F085B2281265
:104A20008DF80000E8B28DF801006A4602214FF4CB
:104A3000ED70FFF7FFF838BDF8B505460E464FF4A8
:104A40007A7095FBF0F000FB06F4200E8DF8000064
:104A5000200C8DF80100200A8DF80200E0B28DF8DC
:104A600003006A4604214FF4AE70FFF7E3F8F8BD87
:104A700038B50446052094FBF0F084B220128DF87E
:104A80000000E0B28DF801006A4602214FF4AD70DB
:104A9000FFF7D0F838BD38B50446052094FBF0F098
:104AA00084B220128DF80000E0B28DF801006A4651
:104AB00002214FF4AC70FFF7BDF838BD38B504469D
:104AC00014B94FF0FF3038BD6A4604214FF45870D6
:104AD000FFF7EDF810B14FF0FF30F4E79DF800005C
:104AE00000069DF8011040EA01409DF8021040EADE
:104AF00001209DF80310084320600020E3E738B54B
:104B00000446200E8DF80000200C8DF80100200ACC
:104B10008DF80200E0B28DF803006A4604214FF4DC
:104B20005870FFF787F838BD38B5044614B94FF010
:104B3000FF3038BD6A4604214FF47170FFF7B7F8B3
:104B400010B14FF0FF30F4E79DF8000000069DF82B
:104B5000011040EA01409DF8021040EA01209DF852
:104B60000310084300EB8000800020600020E0E795
:104B700038B504461420B4FBF0F4200E8DF8000084
:104B8000200C8DF80100200A8DF80200E0B28DF8AB
:104B900003006A4604214FF47170FFF74BF838BDEB
:104BA00038B5044664B120208DF8000028208DF827
:104BB000010030208DF8020038208DF8030004E059
:104BC000A3220421684602F06AFF6A46042140F6E7
:104BD0009E20FFF72FF8FDF787FC38BD000300206B
:104BE00000004843000040460000C045000040452A
:104BF0000000C04438B5044664B1C0208DF8000000
:104C0000C2208DF80100C4208DF80200C6208DF866
:104C1000030004E08B220421684602F040FF6A464C
:104C2000042140F69820FFF705F8FDF75DFC38BD3C
:104C30003EB504466CB1FDA1D1E900208968CDE9FB
:104C4000002002916A4609214FF49760FEF7F2FFB7
:104C50003EBDF9A2D2E900109268CDE901020091AF
:104C60006A4609214FF49760FEF7E4FFF0E73EB58E
:104C7000044602208DF80000CA208DF80100E320D0
:104C80008DF8020009208DF803006A46042168208F
:104C9000FEF7D0FFA3208DF8000004F0400048B1DB
:104CA000C0208DF80100C8208DF80200C2208DF8C8
:104CB000030006E0A3208DF801008DF802008DF8B6
:104CC000030004F4C07048B1C4208DF80400CC2067
:104CD0008DF80500C6208DF8060006E0A3208DF8AB
:104CE00004008DF805008DF80600A3208DF807005C
:104CF0008DF808008DF809006A460A2140F6A720C1
:104D0000FEF798FF04F0030018B120208DF8000092
:104D100002E0D8208DF800006A46012140F6B62056
:104D2000FEF788FF04F0200018B10120FFF780FF94
:104D300002E00020FFF77CFF04F4C07008B304F425
:104D4000807060B1B2208DF800008B208DF80100DA
:104D5000B6208DF802009B208DF803000BE0B020F8
:104D60008DF8000080208DF80100B4208DF802003D
:104D700090208DF803006A46042140F6A220FEF739
:104D800059FF04F0010020B3F8208DF800006A46B6
:104D900001214FF40B60FEF74DFFFA210720FFF7CA
:104DA00029FD0720FFF7ECFD0120FFF70CFE642032
:104DB000FFF71CFE4FF4FA70FFF72BFEC821A14845
:104DC000FFF73AFE2820FFF753FE0A20FFF763FEA5
:104DD00008E0D8208DF800006A4601214FF40B60EE
:104DE000FEF728FF04F0020018B1D9208DF800006A
:104DF00002E0D8208DF800006A46012140F23D70A3
:104E0000FEF718FF04F0040018B10120FFF7F2FECE
:104E100002E00020FFF7EEFE04F0100018B10120C0
:104E2000FFF7BEFE02E00020FFF7BAFE44F00800E4
:104E300085494881FDF758FB00208349887304F0B9
:104E4000400018B10846807B801D887304F4C07050
:104E500020B17D48807B801D7B49887304F014005D
:104E600020B17948807B10307749887304F00300C3
:104E700020B17548807B001D7349887300203EBDBA
:104E80000146714840890880002070472DE9F041B3
:104E90000446E07800F0C006E07800F03F05607856
:104EA00000F0010098B1EF102846E91705EB5171A9
:104EB000C910A5EBC101491C01F0FF086248006858
:104EC00020B16148414602683846904700BF60788B
:104ED00000F0080030B15C48406818B1B0115A4A7F
:104EE000516888470020BDE8F08110B586B00446BF
:104EF00056A207CA03AB07C357A207CA8DE807002B
:104F0000012C09D0022C0ED103AA0B2140F68220DD
:104F1000FEF790FE06B010BD6A460B2140F68220D7
:104F2000FEF788FEF6E74FF0FF30F3E72DE9F04F8C
:104F30008DB00746884615469946DDE9166B002474
:104F4000002030804049887B5A4605A9FEF7D5F9F4
:104F500018B1601E0DB0BDE8F08F3B48807A00F0BC
:104F60001400002861D09DF8140000069DF815106B
:104F700040EA01409DF8161040EA01209DF8171004
:104F8000084328609DF8180000069DF8191040EAB3
:104F900001409DF81A1040EA01209DF81B100843BB
:104FA00068609DF81C0000069DF81D1040EA014055
:104FB0009DF81E1040EA01209DF81F100843A860CC
:104FC0009DF8200000069DF8211040EA01409DF860
:104FD000221040EA01209DF823100843E86004F104
:104FE0001000C4B228680014019068680014029090
:104FF000A86800140390E8680014049001984043E6
:10500000029901FB0100039901FB0100049901FBD6
:10501000010ABAF1706F02DBBAF1885F22DDFDF799
:1050200063FA00203080401E94E721E0B8AAB38DD7
:10503000B4980D355D000000B8AAAAAAB088C3C50F
:10504000C700000009E3CA0200030020D8B1B9F389
:105050008BA391B609B4D900DAB1B9F38BA391B699
:10506000DAB4DA00B6F9000040F48070308000BF96
:105070003448807A00F0400020B305A9601C085C29
:10508000095D40EA012000B2A8F8000005A9E01C73
:10509000095C05AAA01C105C41EA002000B2A8F837
:1050A000020005A9601D095C201D105C41EA00207A
:1050B00000B2A8F80400A01DC4B2B6F9000040F088
:1050C000080030801F48408900F4C07008B305A96B
:1050D000601C085C095D40EA012000B2388005A927
:1050E000E01C095C05AAA01C105C41EA002000B28B
:1050F000788005A9601D095C201D105C41EA002034
:1051000000B2B880A01DC4B2B6F9000040F0700033
:1051100030800C48807A00F0030018B105A9081906
:10512000FFF7B4FE4846FDF74CFD002012E70146AC
:105130000448016000207047014602484160002099
:1051400070470000000300201FB50121084601F050
:1051500008F94FF0804002F051F80020ADF80A0045
:10516000ADF8060041F61F40ADF808003120ADF85B
:10517000040000208DF80C0001A94FF0804001F0E0
:10518000ADFC0121880702F0CBFA012211469007FD
:1051900002F01BF84FF4A06000F04CFD1C208DF8CD
:1051A000000001208DF8030002208DF8010001208D
:1051B0008DF80200684600F042FD0121880701F0E9
:1051C000E9FF1FBD38B51023FEA201210846FBF7F9
:1051D000F4FD1023FDA203210120FBF7EEFD1020BA
:1051E00005230090FB48012102684020FBF7A1FD48
:1051F000102005230090F848032102684020FBF7A7
:1052000098FD0021F548006805F096F919D21023A1
:10521000F3A205210120FBF7D0FD10232B2205214D
:105220004B20FBF72EFDED48006805F039F80446E9
:10523000102004232246052100905020FBF779FD21
:105240001BE01023E6A205210120FBF7B6FD102389
:105250002D2205214B20FBF714FDE048006880F06B
:105260000045284605F01CF8044610200423224679
:10527000052100905020FBF75CFD38BD2DE9F84F6B
:105280000646894692461C46D74DACB34FF07E5138
:10529000D648006804F084FED449074608604FF001
:1052A0007E5104F0ADFF08D106EB0900FCF7C4FA0B
:1052B000074605F015F8CE490860CD480168CD488D
:1052C00004F0DCFECC4908600846006804F03CFEAF
:1052D00007464FF03332C94B04F020FB02D2C848D6
:1052E000C5490860C749C448006805F025F90CD2D3
:1052F000C448C149086008E0FFE7C348BE490860E8
:105300000020BA490860BA490860002C08DDBA4894
:105310000168BE48006804F043FEBC4908600DE027
:10532000002C08DAB4480168B848006805F040F974
:10533000B649086002E00020B44908602946B34835
:10534000006805F0F9F801D2B048056085F0004723
:10535000AE480168384605F0EFF803D285F000400A
:10536000AA4908601CB10020A949086003E04FF079
:105370007C50A7490860A6480168504605F010F81F
:105380000090A248006880F0004BA248016858468F
:1053900005F006F88046009905F00AF9074604F082
:1053A00063FFBDE8F88F2DE9F04704460D46164629
:1053B000994F6119881B04F093FF98490860984839
:1053C0000168384604F0ECFF814639464FF07E50C4
:1053D00005F0EEF8824691480168504604F0E0FF7F
:1053E0008046494604F0DCFD8E49086008460068A6
:1053F0008B4908608B4801688B48006804F0D0FD39
:105400008949086089498848006805F095F801D203
:10541000864809E086498448006804F08DFF01D27F
:10542000834801E0804800687F490860814801683E
:105430007D48006804F0B4FF80467F4801687948E1
:10544000006804F0ADFF8146414604F0A9FD7B49A8
:1054500008607B496148006805F06EF805D379491A
:105460005E48006804F068FF02D200206E490860C0
:105470007248006804F0F8FEBDE8F0872DE9F05F9F
:1054800005460E4614463146284605F091F88146F9
:1054900021466D48006804F083FF824649466B4808
:1054A000006804F07DFF8346514604F079FD804694
:1054B00004F0DAFE07463846BDE8F09F10B501213A
:1054C000880702F030F9012864D1614A61494348F4
:1054D000FEF76AFE604A61496148FCF7C8FB032099
:1054E000FCF761F93C4908600420FCF75CF9394994
:1054F0000860FFF767FE5948B0F9000004F0F0FEBD
:10550000044622465748016834480068FFF7B6FF52
:1055100055490860554802682E4801682E480068C1
:10552000FFF741FF524908604B48B0F9000004F012
:10553000D7FE04464F48224603682648016826489D
:105540000068FFF79BFE4C490860474800684849DF
:105550000968084448490968401A484908604248AF
:1055600000684349096808444349096808444449B4
:105570000860FCF796F9434918480068FCF7B4F94D
:105580003F4801683D480068FCF75DF90121880744
:1055900002F0DAF810BD2DE9FE4F06460F4614461C
:1055A0001D46DDF830803946304604F0F6FF3649B6
:1055B00008603648006804F093FE8246324801686D
:1055C000504665E06C6566743A0000007269676871
:1055D000743A000018000020140000202000002071
:1055E00070697463683A000000008442240100205E
:1055F0001C01002000005C42200100203333E33F07
:105600009A99193F000040406666663F18010020E5
:10561000E0000020D8000020CDCC4C3F0C01002041
:1056200008010020100100201401002000401C4649
:1056300000401CC6D0000020CC0000200401002047
:1056400000002042000020C2C8000020C00000204E
:1056500028000020240000203A000020380000200C
:1056600036000020BC000020B00000200400002014
:10567000B400002008000020B80000200C0000202A
:105680001000002000004041EC000020FC00002041
:1056900004F086FC814604F0E7FD2B4908602B48A6
:1056A00001682B48006804F083FF814604F0DCFDAC
:1056B0002849086026480068244908602648006890
:1056C000234908602048006824490968884202DDAF
:1056D000224800680CE01C480068204909684942DB
:1056E000884203DA1D480068404201E0164800681D
:1056F000154908601748006804F0F2FD83464146EA
:1057000004F04EFE82461048006804F0E9FD294688
:10571000009004F045FE83460F480168204604F0DF
:105720003FFE5946019004F03BFC5146029004F0C4
:1057300037FC814604F098FD094908600846006876
:1057400004F0CEFDBDE8FE8FFC000020F400002038
:10575000F000002000010020EC000020E800002004
:10576000F80000202DE9F04104460D46284604F0DB
:10577000B7FD80466F480168404604F019FF0746B0
:105780006D480168384604F00BFE06466B48016818
:10579000304604F005FC69490860694A5168906820
:1057A00004F0FEFB804664480168404604F0F8FDC2
:1057B000064663480168304604F0EFFE074661483C
:1057C0000168384604F0ECFB5D490860C8685A4936
:1057D000096804F0E5FD064659484168304604F082
:1057E000DCFE57494860C8685349096804F0D8FD91
:1057F000064653484168304604F0CFFE5049886061
:10580000C8685149096804F0CBFB4D49C8604F484E
:10581000B0F9000004F064FD80464D48B0F9000086
:1058200004F05EFD0746214604F0BAFD06464146F7
:1058300004F0B6FB474908604149086846490968D1
:1058400004F0AEFB06463E490868314604F016FCFB
:10585000424908603A4908683F49096804F0A0FBDA
:10586000064637498868314604F008FC3C49086020
:1058700032480168204604F09BFE0746374801681D
:10588000384604F08DFD06462C480168304604F089
:1058900087FB2A49086008460168204604F088FE14
:1058A00007462F480168384604F07AFD064621482D
:1058B0000168304604F074FB1E4908602048016806
:1058C0002648006804F06CFD06461D480168304615
:1058D00004F063FE1A490860084641681F480068E2
:1058E00004F05EFD064616484168304604F055FE59
:1058F00013494860084681681848006804F050FD64
:1059000006460F488168304604F047FE0C4988601F
:105910000846C1681148006804F042FD0646084880
:10592000C168304604F039FE0549C8600348006884
:10593000BDE8F0812C01002030010020280100206A
:1059400010030020340100203C010020460100200B
:1059500044010020400100203801002048010020BF
:105960004C01002010B56FF0040000F0B2F92E4891
:1059700000682E49B0FBF1F02D4908700846007808
:1059800000EB4001C1EBC0104FF6FF7101EAC0000F
:105990002849088010BD0146254A12784A434FF035
:1059A000E0235A6100229A611A46126942F001020C
:1059B0001A6100BF4FF0E022106900F001021AB135
:1059C00000F48032002AF5D04FF0E022126922F074
:1059D00001024FF0E0231A6100229A6170470146EC
:1059E000144A12884A434FF0E0235A6100229A6118
:1059F0001A46126942F001021A6100BF4FF0E0221C
:105A0000106900F001021AB100F48032002AF5D0CA
:105A10004FF0E022126922F001024FF0E0231A61F8
:105A200000229A61704700004800002000127A00AE
:105A3000500100205201002008B54FF4A06000F092
:105A4000F9F817208DF8000001208DF803008DF87B
:105A500001008DF80200684600F0F1F808208DF88A
:105A6000000001208DF8010002208DF802000120C5
:105A70008DF80300684600F0E2F825208DF800005C
:105A800002208DF801008DF8020001208DF803003E
:105A9000684600F0D4F827208DF8000000208DF82B
:105AA00001008DF8020001208DF80300684600F027
:105AB000C6F808BD00BF704700BF4A4A128802F00E
:105AC0004002002AF9D0C2B2464B1B1D1A80704713
:105AD00010B586B00446012144F2040000F034FC05
